{
  "contractName": "Dex",
  "abi": [
    {
      "anonymous": false,
      "inputs": [
        {
          "indexed": false,
          "internalType": "bytes32",
          "name": "_symbol",
          "type": "bytes32"
        },
        {
          "indexed": false,
          "internalType": "uint256",
          "name": "_amount",
          "type": "uint256"
        },
        {
          "indexed": false,
          "internalType": "uint256",
          "name": "_price",
          "type": "uint256"
        },
        {
          "indexed": false,
          "internalType": "address",
          "name": "seller",
          "type": "address"
        },
        {
          "indexed": false,
          "internalType": "address",
          "name": "buyer",
          "type": "address"
        }
      ],
      "name": "Trade",
      "type": "event"
    },
    {
      "inputs": [
        {
          "internalType": "address",
          "name": "",
          "type": "address"
        }
      ],
      "name": "ETHbalance",
      "outputs": [
        {
          "internalType": "uint256",
          "name": "",
          "type": "uint256"
        }
      ],
      "stateMutability": "view",
      "type": "function",
      "constant": true
    },
    {
      "inputs": [
        {
          "internalType": "bytes32",
          "name": "",
          "type": "bytes32"
        },
        {
          "internalType": "uint256",
          "name": "",
          "type": "uint256"
        },
        {
          "internalType": "uint256",
          "name": "",
          "type": "uint256"
        }
      ],
      "name": "Orderbook",
      "outputs": [
        {
          "internalType": "bytes32",
          "name": "symbol",
          "type": "bytes32"
        },
        {
          "internalType": "uint256",
          "name": "amount",
          "type": "uint256"
        },
        {
          "internalType": "uint256",
          "name": "price",
          "type": "uint256"
        },
        {
          "internalType": "address",
          "name": "trader",
          "type": "address"
        },
        {
          "internalType": "uint256",
          "name": "id",
          "type": "uint256"
        }
      ],
      "stateMutability": "view",
      "type": "function",
      "constant": true
    },
    {
      "inputs": [
        {
          "internalType": "bytes32",
          "name": "_name",
          "type": "bytes32"
        },
        {
          "internalType": "bytes32",
          "name": "_symbol",
          "type": "bytes32"
        },
        {
          "internalType": "address",
          "name": "_tokenaddress",
          "type": "address"
        }
      ],
      "name": "addtoken",
      "outputs": [],
      "stateMutability": "nonpayable",
      "type": "function"
    },
    {
      "inputs": [
        {
          "internalType": "address",
          "name": "",
          "type": "address"
        },
        {
          "internalType": "bytes32",
          "name": "",
          "type": "bytes32"
        }
      ],
      "name": "balances",
      "outputs": [
        {
          "internalType": "uint256",
          "name": "",
          "type": "uint256"
        }
      ],
      "stateMutability": "view",
      "type": "function",
      "constant": true
    },
    {
      "inputs": [
        {
          "internalType": "bytes32",
          "name": "_symbol",
          "type": "bytes32"
        },
        {
          "internalType": "uint256",
          "name": "_amount",
          "type": "uint256"
        }
      ],
      "name": "deposit",
      "outputs": [],
      "stateMutability": "nonpayable",
      "type": "function"
    },
    {
      "inputs": [
        {
          "internalType": "uint256",
          "name": "",
          "type": "uint256"
        }
      ],
      "name": "tokenlist",
      "outputs": [
        {
          "internalType": "bytes32",
          "name": "",
          "type": "bytes32"
        }
      ],
      "stateMutability": "view",
      "type": "function",
      "constant": true
    },
    {
      "inputs": [
        {
          "internalType": "bytes32",
          "name": "",
          "type": "bytes32"
        }
      ],
      "name": "tokens",
      "outputs": [
        {
          "internalType": "bytes32",
          "name": "name",
          "type": "bytes32"
        },
        {
          "internalType": "address",
          "name": "tokenaddress",
          "type": "address"
        }
      ],
      "stateMutability": "view",
      "type": "function",
      "constant": true
    },
    {
      "inputs": [
        {
          "internalType": "bytes32",
          "name": "_symbol",
          "type": "bytes32"
        },
        {
          "internalType": "uint256",
          "name": "_amount",
          "type": "uint256"
        }
      ],
      "name": "withdraw",
      "outputs": [],
      "stateMutability": "nonpayable",
      "type": "function"
    },
    {
      "inputs": [],
      "name": "depositETH",
      "outputs": [],
      "stateMutability": "payable",
      "type": "function",
      "payable": true
    },
    {
      "inputs": [
        {
          "internalType": "bytes32",
          "name": "_symbol",
          "type": "bytes32"
        },
        {
          "internalType": "enum Dex.Side",
          "name": "_side",
          "type": "uint8"
        }
      ],
      "name": "getOrderBook",
      "outputs": [
        {
          "components": [
            {
              "internalType": "bytes32",
              "name": "symbol",
              "type": "bytes32"
            },
            {
              "internalType": "uint256",
              "name": "amount",
              "type": "uint256"
            },
            {
              "internalType": "uint256",
              "name": "price",
              "type": "uint256"
            },
            {
              "internalType": "address",
              "name": "trader",
              "type": "address"
            },
            {
              "internalType": "uint256",
              "name": "id",
              "type": "uint256"
            }
          ],
          "internalType": "struct Dex.Order[]",
          "name": "",
          "type": "tuple[]"
        }
      ],
      "stateMutability": "view",
      "type": "function",
      "constant": true
    },
    {
      "inputs": [
        {
          "internalType": "bytes32",
          "name": "_symbol",
          "type": "bytes32"
        },
        {
          "internalType": "enum Dex.Side",
          "name": "_side",
          "type": "uint8"
        },
        {
          "internalType": "uint256",
          "name": "_i",
          "type": "uint256"
        }
      ],
      "name": "getOrder",
      "outputs": [
        {
          "components": [
            {
              "internalType": "bytes32",
              "name": "symbol",
              "type": "bytes32"
            },
            {
              "internalType": "uint256",
              "name": "amount",
              "type": "uint256"
            },
            {
              "internalType": "uint256",
              "name": "price",
              "type": "uint256"
            },
            {
              "internalType": "address",
              "name": "trader",
              "type": "address"
            },
            {
              "internalType": "uint256",
              "name": "id",
              "type": "uint256"
            }
          ],
          "internalType": "struct Dex.Order",
          "name": "",
          "type": "tuple"
        }
      ],
      "stateMutability": "view",
      "type": "function",
      "constant": true
    },
    {
      "inputs": [
        {
          "internalType": "bytes32",
          "name": "_symbol",
          "type": "bytes32"
        },
        {
          "internalType": "enum Dex.Side",
          "name": "_side",
          "type": "uint8"
        },
        {
          "internalType": "uint256",
          "name": "_i",
          "type": "uint256"
        }
      ],
      "name": "getOrderID",
      "outputs": [
        {
          "internalType": "uint256",
          "name": "",
          "type": "uint256"
        }
      ],
      "stateMutability": "view",
      "type": "function",
      "constant": true
    },
    {
      "inputs": [],
      "name": "getETHbalance",
      "outputs": [
        {
          "internalType": "uint256",
          "name": "",
          "type": "uint256"
        }
      ],
      "stateMutability": "view",
      "type": "function",
      "constant": true
    },
    {
      "inputs": [
        {
          "internalType": "bytes32",
          "name": "_symbol",
          "type": "bytes32"
        },
        {
          "internalType": "uint256",
          "name": "_amount",
          "type": "uint256"
        },
        {
          "internalType": "uint256",
          "name": "_price",
          "type": "uint256"
        },
        {
          "internalType": "enum Dex.Side",
          "name": "_side",
          "type": "uint8"
        }
      ],
      "name": "PlaceOrder",
      "outputs": [],
      "stateMutability": "nonpayable",
      "type": "function"
    },
    {
      "inputs": [
        {
          "internalType": "bytes32",
          "name": "_symbol",
          "type": "bytes32"
        },
        {
          "internalType": "uint256",
          "name": "_amount",
          "type": "uint256"
        },
        {
          "internalType": "enum Dex.Side",
          "name": "_side",
          "type": "uint8"
        }
      ],
      "name": "placeMarketOrder",
      "outputs": [],
      "stateMutability": "nonpayable",
      "type": "function"
    }
  ],
  "bytecode": "0x608060405234801561001057600080fd5b50613e15806100206000396000f3fe6080604052600436106100e85760003560e01c8063596f165b1161008a578063ba58ea6811610059578063ba58ea681461032f578063c5395d8e1461036c578063d43ce69514610395578063f6326fb3146103d2576100e8565b8063596f165b1461024857806373ebee82146102895780638df2af06146102b4578063904194a3146102f1576100e8565b80631f14df69116100c65780631f14df691461016857806348a7dce9146101a55780634e504747146101ce5780634f3cb5411461020b576100e8565b8063040cf020146100ed5780630b51f112146101165780631de26e161461013f575b600080fd5b3480156100f957600080fd5b50610114600480360381019061010f9190613523565b6103dc565b005b34801561012257600080fd5b5061013d6004803603810190610138919061355f565b61060e565b005b34801561014b57600080fd5b5061016660048036038101906101619190613523565b610c38565b005b34801561017457600080fd5b5061018f600480360381019061018a91906133bb565b610ed9565b60405161019c9190613b60565b60405180910390f35b3480156101b157600080fd5b506101cc60048036038101906101c79190613449565b610efe565b005b3480156101da57600080fd5b506101f560048036038101906101f09190613392565b610f9a565b6040516102029190613b60565b60405180910390f35b34801561021757600080fd5b50610232600480360381019061022d9190613660565b610fb2565b60405161023f91906139fb565b60405180910390f35b34801561025457600080fd5b5061026f600480360381019061026a91906135ae565b610fd6565b604051610280959493929190613a92565b60405180910390f35b34801561029557600080fd5b5061029e611056565b6040516102ab9190613b60565b60405180910390f35b3480156102c057600080fd5b506102db60048036038101906102d691906134d4565b61109d565b6040516102e89190613b60565b60405180910390f35b3480156102fd57600080fd5b5061031860048036038101906103139190613420565b61114e565b604051610326929190613a16565b60405180910390f35b34801561033b57600080fd5b5061035660048036038101906103519190613498565b611192565b60405161036391906139d9565b60405180910390f35b34801561037857600080fd5b50610393600480360381019061038e91906135fd565b6112cc565b005b3480156103a157600080fd5b506103bc60048036038101906103b791906134d4565b611840565b6040516103c99190613b45565b60405180910390f35b6103da61197c565b005b81600073ffffffffffffffffffffffffffffffffffffffff1660008083815260200190815260200160002060010160009054906101000a900473ffffffffffffffffffffffffffffffffffffffff1673ffffffffffffffffffffffffffffffffffffffff161415610482576040517f08c379a000000000000000000000000000000000000000000000000000000000815260040161047990613b25565b60405180910390fd5b81600160003373ffffffffffffffffffffffffffffffffffffffff1673ffffffffffffffffffffffffffffffffffffffff16815260200190815260200160002060008581526020019081526020016000205410156104df57600080fd5b81600160003373ffffffffffffffffffffffffffffffffffffffff1673ffffffffffffffffffffffffffffffffffffffff1681526020019081526020016000206000858152602001908152602001600020600082825461053f9190613c75565b9250508190555060008084815260200190815260200160002060010160009054906101000a900473ffffffffffffffffffffffffffffffffffffffff1673ffffffffffffffffffffffffffffffffffffffff1663a9059cbb33846040518363ffffffff1660e01b81526004016105b69291906139b0565b602060405180830381600087803b1580156105d057600080fd5b505af11580156105e4573d6000803e3d6000fd5b505050506040513d601f19601f8201168201806040525081019061060891906133f7565b50505050565b82600073ffffffffffffffffffffffffffffffffffffffff1660008083815260200190815260200160002060010160009054906101000a900473ffffffffffffffffffffffffffffffffffffffff1673ffffffffffffffffffffffffffffffffffffffff1614156106b4576040517f08c379a00000000000000000000000000000000000000000000000000000000081526004016106ab90613b25565b60405180910390fd5b60008060005b6000861115610c2f576001808111156106fc577f4e487b7100000000000000000000000000000000000000000000000000000000600052602160045260246000fd5b856001811115610735577f4e487b7100000000000000000000000000000000000000000000000000000000600052602160045260246000fd5b141561093457600060046000898152602001908152602001600020600080600181111561078b577f4e487b7100000000000000000000000000000000000000000000000000000000600052602160045260246000fd5b815260200190815260200160002080549050116107dd576040517f08c379a00000000000000000000000000000000000000000000000000000000081526004016107d490613ae5565b60405180910390fd5b60046000888152602001908152602001600020600080600181111561082b577f4e487b7100000000000000000000000000000000000000000000000000000000600052602160045260246000fd5b8152602001908152602001600020600081548110610872577f4e487b7100000000000000000000000000000000000000000000000000000000600052603260045260246000fd5b90600052602060002090600502016002015490506004600088815260200190815260200160002060008060018111156108d4577f4e487b7100000000000000000000000000000000000000000000000000000000600052602160045260246000fd5b815260200190815260200160002060008154811061091b577f4e487b7100000000000000000000000000000000000000000000000000000000600052603260045260246000fd5b9060005260206000209060050201600101549150610bfd565b6000600460008981526020019081526020016000206000600180811115610984577f4e487b7100000000000000000000000000000000000000000000000000000000600052602160045260246000fd5b815260200190815260200160002080549050116109d6576040517f08c379a00000000000000000000000000000000000000000000000000000000081526004016109cd90613b05565b60405180910390fd5b600460008881526020019081526020016000206000600180811115610a24577f4e487b7100000000000000000000000000000000000000000000000000000000600052602160045260246000fd5b81526020019081526020016000206001600460008a81526020019081526020016000206000600180811115610a82577f4e487b7100000000000000000000000000000000000000000000000000000000600052602160045260246000fd5b815260200190815260200160002080549050610a9e9190613c75565b81548110610ad5577f4e487b7100000000000000000000000000000000000000000000000000000000600052603260045260246000fd5b9060005260206000209060050201600201549050600460008881526020019081526020016000206000600180811115610b37577f4e487b7100000000000000000000000000000000000000000000000000000000600052602160045260246000fd5b81526020019081526020016000206001600460008a81526020019081526020016000206000600180811115610b95577f4e487b7100000000000000000000000000000000000000000000000000000000600052602160045260246000fd5b815260200190815260200160002080549050610bb19190613c75565b81548110610be8577f4e487b7100000000000000000000000000000000000000000000000000000000600052603260045260246000fd5b90600052602060002090600502016001015491505b858210610c0c57859250610c10565b8192505b610c1c878483886112cc565b8286610c289190613c75565b95506106ba565b50505050505050565b81600073ffffffffffffffffffffffffffffffffffffffff1660008083815260200190815260200160002060010160009054906101000a900473ffffffffffffffffffffffffffffffffffffffff1673ffffffffffffffffffffffffffffffffffffffff161415610cde576040517f08c379a0000000000000000000000000000000000000000000000000000000008152600401610cd590613b25565b60405180910390fd5b8160008085815260200190815260200160002060010160009054906101000a900473ffffffffffffffffffffffffffffffffffffffff1673ffffffffffffffffffffffffffffffffffffffff166370a08231336040518263ffffffff1660e01b8152600401610d4d919061395e565b60206040518083038186803b158015610d6557600080fd5b505afa158015610d79573d6000803e3d6000fd5b505050506040513d601f19601f82011682018060405250810190610d9d9190613689565b1015610da857600080fd5b81600160003373ffffffffffffffffffffffffffffffffffffffff1673ffffffffffffffffffffffffffffffffffffffff16815260200190815260200160002060008581526020019081526020016000206000828254610e089190613bc5565b9250508190555060008084815260200190815260200160002060010160009054906101000a900473ffffffffffffffffffffffffffffffffffffffff1673ffffffffffffffffffffffffffffffffffffffff166323b872dd3330856040518463ffffffff1660e01b8152600401610e8193929190613979565b602060405180830381600087803b158015610e9b57600080fd5b505af1158015610eaf573d6000803e3d6000fd5b505050506040513d601f19601f82011682018060405250810190610ed391906133f7565b50505050565b6001602052816000526040600020602052806000526040600020600091509150505481565b8060008084815260200190815260200160002060010160006101000a81548173ffffffffffffffffffffffffffffffffffffffff021916908373ffffffffffffffffffffffffffffffffffffffff16021790555082600080848152602001908152602001600020600001819055506002829080600181540180825580915050600190039060005260206000200160009091909190915055505050565b60056020528060005260406000206000915090505481565b60028181548110610fc257600080fd5b906000526020600020016000915090505481565b60046020528260005260406000206020528160005260406000208181548110610ffe57600080fd5b906000526020600020906005020160009250925050508060000154908060010154908060020154908060030160009054906101000a900473ffffffffffffffffffffffffffffffffffffffff16908060040154905085565b6000600560003373ffffffffffffffffffffffffffffffffffffffff1673ffffffffffffffffffffffffffffffffffffffff16815260200190815260200160002054905090565b60006004600085815260200190815260200160002060008460018111156110ed577f4e487b7100000000000000000000000000000000000000000000000000000000600052602160045260246000fd5b81526020019081526020016000208281548110611133577f4e487b7100000000000000000000000000000000000000000000000000000000600052603260045260246000fd5b90600052602060002090600502016004015490509392505050565b60006020528060005260406000206000915090508060000154908060010160009054906101000a900473ffffffffffffffffffffffffffffffffffffffff16905082565b60606004600084815260200190815260200160002060008360018111156111e2577f4e487b7100000000000000000000000000000000000000000000000000000000600052602160045260246000fd5b8152602001908152602001600020805480602002602001604051908101604052809291908181526020016000905b828210156112c057838290600052602060002090600502016040518060a00160405290816000820154815260200160018201548152602001600282015481526020016003820160009054906101000a900473ffffffffffffffffffffffffffffffffffffffff1673ffffffffffffffffffffffffffffffffffffffff1673ffffffffffffffffffffffffffffffffffffffff16815260200160048201548152505081526020019060010190611210565b50505050905092915050565b83600073ffffffffffffffffffffffffffffffffffffffff1660008083815260200190815260200160002060010160009054906101000a900473ffffffffffffffffffffffffffffffffffffffff1673ffffffffffffffffffffffffffffffffffffffff161415611372576040517f08c379a000000000000000000000000000000000000000000000000000000000815260040161136990613b25565b60405180910390fd5b600060018111156113ac577f4e487b7100000000000000000000000000000000000000000000000000000000600052602160045260246000fd5b8260018111156113e5577f4e487b7100000000000000000000000000000000000000000000000000000000600052602160045260246000fd5b14156114a85783836113f79190613c1b565b600560003373ffffffffffffffffffffffffffffffffffffffff1673ffffffffffffffffffffffffffffffffffffffff16815260200190815260200160002054101561144257600080fd5b838361144e9190613c1b565b600560003373ffffffffffffffffffffffffffffffffffffffff1673ffffffffffffffffffffffffffffffffffffffff168152602001908152602001600020600082825461149c9190613c75565b9250508190555061156d565b83600160003373ffffffffffffffffffffffffffffffffffffffff1673ffffffffffffffffffffffffffffffffffffffff168152602001908152602001600020600087815260200190815260200160002054101561150557600080fd5b83600160003373ffffffffffffffffffffffffffffffffffffffff1673ffffffffffffffffffffffffffffffffffffffff168152602001908152602001600020600087815260200190815260200160002060008282546115659190613c75565b925050819055505b6001600360008282546115809190613bc5565b92505081905550611593858585856119d4565b61159d8583611b15565b60006004600087815260200190815260200160002060008060018111156115ed577f4e487b7100000000000000000000000000000000000000000000000000000000600052602160045260246000fd5b81526020019081526020016000208054905011801561166b57506000600460008781526020019081526020016000206000600180811115611657577f4e487b7100000000000000000000000000000000000000000000000000000000600052602160045260246000fd5b815260200190815260200160002080549050115b15611839576004600086815260200190815260200160002060006001808111156116be577f4e487b7100000000000000000000000000000000000000000000000000000000600052602160045260246000fd5b8152602001908152602001600020600160046000888152602001908152602001600020600060018081111561171c577f4e487b7100000000000000000000000000000000000000000000000000000000600052602160045260246000fd5b8152602001908152602001600020805490506117389190613c75565b8154811061176f577f4e487b7100000000000000000000000000000000000000000000000000000000600052603260045260246000fd5b9060005260206000209060050201600201546004600087815260200190815260200160002060008060018111156117cf577f4e487b7100000000000000000000000000000000000000000000000000000000600052602160045260246000fd5b8152602001908152602001600020600081548110611816577f4e487b7100000000000000000000000000000000000000000000000000000000600052603260045260246000fd5b90600052602060002090600502016002015410611838576118378386611fa0565b5b5b5050505050565b611848613187565b600460008581526020019081526020016000206000846001811115611896577f4e487b7100000000000000000000000000000000000000000000000000000000600052602160045260246000fd5b815260200190815260200160002082815481106118dc577f4e487b7100000000000000000000000000000000000000000000000000000000600052603260045260246000fd5b90600052602060002090600502016040518060a00160405290816000820154815260200160018201548152602001600282015481526020016003820160009054906101000a900473ffffffffffffffffffffffffffffffffffffffff1673ffffffffffffffffffffffffffffffffffffffff1673ffffffffffffffffffffffffffffffffffffffff16815260200160048201548152505090509392505050565b34600560003373ffffffffffffffffffffffffffffffffffffffff1673ffffffffffffffffffffffffffffffffffffffff16815260200190815260200160002060008282546119cb9190613bc5565b92505081905550565b6000600460008681526020019081526020016000206000836001811115611a24577f4e487b7100000000000000000000000000000000000000000000000000000000600052602160045260246000fd5b81526020019081526020016000209050806040518060a001604052808781526020018681526020018581526020013373ffffffffffffffffffffffffffffffffffffffff168152602001600354815250908060018154018082558091505060019003906000526020600020906005020160009091909190915060008201518160000155602082015181600101556040820151816002015560608201518160030160006101000a81548173ffffffffffffffffffffffffffffffffffffffff021916908373ffffffffffffffffffffffffffffffffffffffff1602179055506080820151816004015550505050505050565b6000600460008481526020019081526020016000206000836001811115611b65577f4e487b7100000000000000000000000000000000000000000000000000000000600052602160045260246000fd5b8152602001908152602001600020905060005b60018280549050611b899190613c75565b811015611f9a5781600182611b9e9190613bc5565b8380549050611bad9190613c75565b81548110611be4577f4e487b7100000000000000000000000000000000000000000000000000000000600052603260045260246000fd5b90600052602060002090600502016002015482600283611c049190613bc5565b8480549050611c139190613c75565b81548110611c4a577f4e487b7100000000000000000000000000000000000000000000000000000000600052603260045260246000fd5b9060005260206000209060050201600201541015611f8257600082600183611c729190613bc5565b8480549050611c819190613c75565b81548110611cb8577f4e487b7100000000000000000000000000000000000000000000000000000000600052603260045260246000fd5b90600052602060002090600502016040518060a00160405290816000820154815260200160018201548152602001600282015481526020016003820160009054906101000a900473ffffffffffffffffffffffffffffffffffffffff1673ffffffffffffffffffffffffffffffffffffffff1673ffffffffffffffffffffffffffffffffffffffff168152602001600482015481525050905082600283611d5f9190613bc5565b8480549050611d6e9190613c75565b81548110611da5577f4e487b7100000000000000000000000000000000000000000000000000000000600052603260045260246000fd5b906000526020600020906005020183600184611dc19190613bc5565b8580549050611dd09190613c75565b81548110611e07577f4e487b7100000000000000000000000000000000000000000000000000000000600052603260045260246000fd5b90600052602060002090600502016000820154816000015560018201548160010155600282015481600201556003820160009054906101000a900473ffffffffffffffffffffffffffffffffffffffff168160030160006101000a81548173ffffffffffffffffffffffffffffffffffffffff021916908373ffffffffffffffffffffffffffffffffffffffff160217905550600482015481600401559050508083600284611eb69190613bc5565b8580549050611ec59190613c75565b81548110611efc577f4e487b7100000000000000000000000000000000000000000000000000000000600052603260045260246000fd5b906000526020600020906005020160008201518160000155602082015181600101556040820151816002015560608201518160030160006101000a81548173ffffffffffffffffffffffffffffffffffffffff021916908373ffffffffffffffffffffffffffffffffffffffff1602179055506080820151816004015590505050611f87565b611f9a565b8080611f9290613cfb565b915050611b78565b50505050565b600460008281526020019081526020016000206000600180811115611fee577f4e487b7100000000000000000000000000000000000000000000000000000000600052602160045260246000fd5b8152602001908152602001600020600160046000848152602001908152602001600020600060018081111561204c577f4e487b7100000000000000000000000000000000000000000000000000000000600052602160045260246000fd5b8152602001908152602001600020805490506120689190613c75565b8154811061209f577f4e487b7100000000000000000000000000000000000000000000000000000000600052603260045260246000fd5b9060005260206000209060050201600101546004600083815260200190815260200160002060008060018111156120ff577f4e487b7100000000000000000000000000000000000000000000000000000000600052602160045260246000fd5b8152602001908152602001600020600081548110612146577f4e487b7100000000000000000000000000000000000000000000000000000000600052603260045260246000fd5b90600052602060002090600502016001015411156123725760006004600083815260200190815260200160002060006001808111156121ae577f4e487b7100000000000000000000000000000000000000000000000000000000600052602160045260246000fd5b8152602001908152602001600020600160046000858152602001908152602001600020600060018081111561220c577f4e487b7100000000000000000000000000000000000000000000000000000000600052602160045260246000fd5b8152602001908152602001600020805490506122289190613c75565b8154811061225f577f4e487b7100000000000000000000000000000000000000000000000000000000600052603260045260246000fd5b906000526020600020906005020160010154905061227e828483612a39565b6004600083815260200190815260200160002060006001808111156122cc577f4e487b7100000000000000000000000000000000000000000000000000000000600052602160045260246000fd5b8152602001908152602001600020805480612310577f4e487b7100000000000000000000000000000000000000000000000000000000600052603160045260246000fd5b6001900381819060005260206000209060050201600080820160009055600182016000905560028201600090556003820160006101000a81549073ffffffffffffffffffffffffffffffffffffffff0219169055600482016000905550509055505b6004600082815260200190815260200160002060006001808111156123c0577f4e487b7100000000000000000000000000000000000000000000000000000000600052602160045260246000fd5b8152602001908152602001600020600160046000848152602001908152602001600020600060018081111561241e577f4e487b7100000000000000000000000000000000000000000000000000000000600052602160045260246000fd5b81526020019081526020016000208054905061243a9190613c75565b81548110612471577f4e487b7100000000000000000000000000000000000000000000000000000000600052603260045260246000fd5b9060005260206000209060050201600101546004600083815260200190815260200160002060008060018111156124d1577f4e487b7100000000000000000000000000000000000000000000000000000000600052602160045260246000fd5b8152602001908152602001600020600081548110612518577f4e487b7100000000000000000000000000000000000000000000000000000000600052603260045260246000fd5b90600052602060002090600502016001015414156127b6576000600460008381526020019081526020016000206000600180811115612580577f4e487b7100000000000000000000000000000000000000000000000000000000600052602160045260246000fd5b815260200190815260200160002060016004600085815260200190815260200160002060006001808111156125de577f4e487b7100000000000000000000000000000000000000000000000000000000600052602160045260246000fd5b8152602001908152602001600020805490506125fa9190613c75565b81548110612631577f4e487b7100000000000000000000000000000000000000000000000000000000600052603260045260246000fd5b9060005260206000209060050201600101549050612650828483612a39565b60006004600084815260200190815260200160002060006001808111156126a0577f4e487b7100000000000000000000000000000000000000000000000000000000600052602160045260246000fd5b81526020019081526020016000209050808054806126e7577f4e487b7100000000000000000000000000000000000000000000000000000000600052603160045260246000fd5b6001900381819060005260206000209060050201600080820160009055600182016000905560028201600090556003820160006101000a81549073ffffffffffffffffffffffffffffffffffffffff021916905560048201600090555050905580600460008581526020019081526020016000206000600180811115612796577f4e487b7100000000000000000000000000000000000000000000000000000000600052602160045260246000fd5b81526020019081526020016000209080546127b29291906131cf565b5050505b600460008281526020019081526020016000206000600180811115612804577f4e487b7100000000000000000000000000000000000000000000000000000000600052602160045260246000fd5b81526020019081526020016000206001600460008481526020019081526020016000206000600180811115612862577f4e487b7100000000000000000000000000000000000000000000000000000000600052602160045260246000fd5b81526020019081526020016000208054905061287e9190613c75565b815481106128b5577f4e487b7100000000000000000000000000000000000000000000000000000000600052603260045260246000fd5b906000526020600020906005020160010154600460008381526020019081526020016000206000806001811115612915577f4e487b7100000000000000000000000000000000000000000000000000000000600052602160045260246000fd5b815260200190815260200160002060008154811061295c577f4e487b7100000000000000000000000000000000000000000000000000000000600052603260045260246000fd5b9060005260206000209060050201600101541015612a355760006004600083815260200190815260200160002060008060018111156129c4577f4e487b7100000000000000000000000000000000000000000000000000000000600052602160045260246000fd5b8152602001908152602001600020600081548110612a0b577f4e487b7100000000000000000000000000000000000000000000000000000000600052603260045260246000fd5b9060005260206000209060050201600101549050612a2a828483612a39565b612a3382612f31565b505b5050565b8060016000600460008781526020019081526020016000206000806001811115612a8c577f4e487b7100000000000000000000000000000000000000000000000000000000600052602160045260246000fd5b8152602001908152602001600020600081548110612ad3577f4e487b7100000000000000000000000000000000000000000000000000000000600052603260045260246000fd5b906000526020600020906005020160030160009054906101000a900473ffffffffffffffffffffffffffffffffffffffff1673ffffffffffffffffffffffffffffffffffffffff1673ffffffffffffffffffffffffffffffffffffffff16815260200190815260200160002060008581526020019081526020016000206000828254612b5f9190613bc5565b925050819055508181612b729190613c1b565b60056000600460008781526020019081526020016000206000600180811115612bc4577f4e487b7100000000000000000000000000000000000000000000000000000000600052602160045260246000fd5b81526020019081526020016000206001600460008981526020019081526020016000206000600180811115612c22577f4e487b7100000000000000000000000000000000000000000000000000000000600052602160045260246000fd5b815260200190815260200160002080549050612c3e9190613c75565b81548110612c75577f4e487b7100000000000000000000000000000000000000000000000000000000600052603260045260246000fd5b906000526020600020906005020160030160009054906101000a900473ffffffffffffffffffffffffffffffffffffffff1673ffffffffffffffffffffffffffffffffffffffff1673ffffffffffffffffffffffffffffffffffffffff1681526020019081526020016000206000828254612cf09190613bc5565b925050819055507f46dae138b2f2b52542e85ccd00d25f993a78ce7d833eaacba72708a5b269dd09838284600460008881526020019081526020016000206000600180811115612d69577f4e487b7100000000000000000000000000000000000000000000000000000000600052602160045260246000fd5b81526020019081526020016000206001600460008a81526020019081526020016000206000600180811115612dc7577f4e487b7100000000000000000000000000000000000000000000000000000000600052602160045260246000fd5b815260200190815260200160002080549050612de39190613c75565b81548110612e1a577f4e487b7100000000000000000000000000000000000000000000000000000000600052603260045260246000fd5b906000526020600020906005020160030160009054906101000a900473ffffffffffffffffffffffffffffffffffffffff16600460008981526020019081526020016000206000806001811115612e9a577f4e487b7100000000000000000000000000000000000000000000000000000000600052602160045260246000fd5b8152602001908152602001600020600081548110612ee1577f4e487b7100000000000000000000000000000000000000000000000000000000600052603260045260246000fd5b906000526020600020906005020160030160009054906101000a900473ffffffffffffffffffffffffffffffffffffffff16604051612f24959493929190613a3f565b60405180910390a1505050565b6000600460008381526020019081526020016000206000806001811115612f81577f4e487b7100000000000000000000000000000000000000000000000000000000600052602160045260246000fd5b8152602001908152602001600020905060005b60018280549050612fa59190613c75565b8110156130eb5781600182612fba9190613bc5565b81548110612ff1577f4e487b7100000000000000000000000000000000000000000000000000000000600052603260045260246000fd5b9060005260206000209060050201828281548110613038577f4e487b7100000000000000000000000000000000000000000000000000000000600052603260045260246000fd5b90600052602060002090600502016000820154816000015560018201548160010155600282015481600201556003820160009054906101000a900473ffffffffffffffffffffffffffffffffffffffff168160030160006101000a81548173ffffffffffffffffffffffffffffffffffffffff021916908373ffffffffffffffffffffffffffffffffffffffff1602179055506004820154816004015590505080806130e390613cfb565b915050612f94565b5080805480613123577f4e487b7100000000000000000000000000000000000000000000000000000000600052603160045260246000fd5b6001900381819060005260206000209060050201600080820160009055600182016000905560028201600090556003820160006101000a81549073ffffffffffffffffffffffffffffffffffffffff02191690556004820160009055505090555050565b6040518060a00160405280600080191681526020016000815260200160008152602001600073ffffffffffffffffffffffffffffffffffffffff168152602001600081525090565b8280548282559060005260206000209060050281019282156132a55760005260206000209160050282015b828111156132a45782826000820154816000015560018201548160010155600282015481600201556003820160009054906101000a900473ffffffffffffffffffffffffffffffffffffffff168160030160006101000a81548173ffffffffffffffffffffffffffffffffffffffff021916908373ffffffffffffffffffffffffffffffffffffffff160217905550600482015481600401555050916005019190600501906131fa565b5b5090506132b291906132b6565b5090565b5b8082111561331057600080820160009055600182016000905560028201600090556003820160006101000a81549073ffffffffffffffffffffffffffffffffffffffff02191690556004820160009055506005016132b7565b5090565b60008135905061332381613d73565b92915050565b60008151905061333881613d8a565b92915050565b60008135905061334d81613da1565b92915050565b60008135905061336281613db8565b92915050565b60008135905061337781613dc8565b92915050565b60008151905061338c81613dc8565b92915050565b6000602082840312156133a457600080fd5b60006133b284828501613314565b91505092915050565b600080604083850312156133ce57600080fd5b60006133dc85828601613314565b92505060206133ed8582860161333e565b9150509250929050565b60006020828403121561340957600080fd5b600061341784828501613329565b91505092915050565b60006020828403121561343257600080fd5b60006134408482850161333e565b91505092915050565b60008060006060848603121561345e57600080fd5b600061346c8682870161333e565b935050602061347d8682870161333e565b925050604061348e86828701613314565b9150509250925092565b600080604083850312156134ab57600080fd5b60006134b98582860161333e565b92505060206134ca85828601613353565b9150509250929050565b6000806000606084860312156134e957600080fd5b60006134f78682870161333e565b935050602061350886828701613353565b925050604061351986828701613368565b9150509250925092565b6000806040838503121561353657600080fd5b60006135448582860161333e565b925050602061355585828601613368565b9150509250929050565b60008060006060848603121561357457600080fd5b60006135828682870161333e565b935050602061359386828701613368565b92505060406135a486828701613353565b9150509250925092565b6000806000606084860312156135c357600080fd5b60006135d18682870161333e565b93505060206135e286828701613368565b92505060406135f386828701613368565b9150509250925092565b6000806000806080858703121561361357600080fd5b60006136218782880161333e565b945050602061363287828801613368565b935050604061364387828801613368565b925050606061365487828801613353565b91505092959194509250565b60006020828403121561367257600080fd5b600061368084828501613368565b91505092915050565b60006020828403121561369b57600080fd5b60006136a98482850161337d565b91505092915050565b60006136be8383613870565b60a08301905092915050565b6136d381613ca9565b82525050565b6136e281613ca9565b82525050565b60006136f382613b8b565b6136fd8185613ba3565b935061370883613b7b565b8060005b8381101561373957815161372088826136b2565b975061372b83613b96565b92505060018101905061370c565b5085935050505092915050565b61374f81613cc7565b82525050565b61375e81613cc7565b82525050565b6000613771603383613bb4565b91507f546865726520617265206e6f20627579206f72646572732c20736f20796f752060008301527f63616e742073656c6c206174206d61726b6574000000000000000000000000006020830152604082019050919050565b60006137d7603383613bb4565b91507f546865726520617265206e6f2073656c6c206f72646572732c20736f20796f7560008301527f2063616e7420627579206174206d61726b6574000000000000000000000000006020830152604082019050919050565b600061383d601483613bb4565b91507f746f6b656e20646f6573206e6f742065786973740000000000000000000000006000830152602082019050919050565b60a0820160008201516138866000850182613746565b5060208201516138996020850182613940565b5060408201516138ac6040850182613940565b5060608201516138bf60608501826136ca565b5060808201516138d26080850182613940565b50505050565b60a0820160008201516138ee6000850182613746565b5060208201516139016020850182613940565b5060408201516139146040850182613940565b50606082015161392760608501826136ca565b50608082015161393a6080850182613940565b50505050565b61394981613cf1565b82525050565b61395881613cf1565b82525050565b600060208201905061397360008301846136d9565b92915050565b600060608201905061398e60008301866136d9565b61399b60208301856136d9565b6139a8604083018461394f565b949350505050565b60006040820190506139c560008301856136d9565b6139d2602083018461394f565b9392505050565b600060208201905081810360008301526139f381846136e8565b905092915050565b6000602082019050613a106000830184613755565b92915050565b6000604082019050613a2b6000830185613755565b613a3860208301846136d9565b9392505050565b600060a082019050613a546000830188613755565b613a61602083018761394f565b613a6e604083018661394f565b613a7b60608301856136d9565b613a8860808301846136d9565b9695505050505050565b600060a082019050613aa76000830188613755565b613ab4602083018761394f565b613ac1604083018661394f565b613ace60608301856136d9565b613adb608083018461394f565b9695505050505050565b60006020820190508181036000830152613afe81613764565b9050919050565b60006020820190508181036000830152613b1e816137ca565b9050919050565b60006020820190508181036000830152613b3e81613830565b9050919050565b600060a082019050613b5a60008301846138d8565b92915050565b6000602082019050613b75600083018461394f565b92915050565b6000819050602082019050919050565b600081519050919050565b6000602082019050919050565b600082825260208201905092915050565b600082825260208201905092915050565b6000613bd082613cf1565b9150613bdb83613cf1565b9250827fffffffffffffffffffffffffffffffffffffffffffffffffffffffffffffffff03821115613c1057613c0f613d44565b5b828201905092915050565b6000613c2682613cf1565b9150613c3183613cf1565b9250817fffffffffffffffffffffffffffffffffffffffffffffffffffffffffffffffff0483118215151615613c6a57613c69613d44565b5b828202905092915050565b6000613c8082613cf1565b9150613c8b83613cf1565b925082821015613c9e57613c9d613d44565b5b828203905092915050565b6000613cb482613cd1565b9050919050565b60008115159050919050565b6000819050919050565b600073ffffffffffffffffffffffffffffffffffffffff82169050919050565b6000819050919050565b6000613d0682613cf1565b91507fffffffffffffffffffffffffffffffffffffffffffffffffffffffffffffffff821415613d3957613d38613d44565b5b600182019050919050565b7f4e487b7100000000000000000000000000000000000000000000000000000000600052601160045260246000fd5b613d7c81613ca9565b8114613d8757600080fd5b50565b613d9381613cbb565b8114613d9e57600080fd5b50565b613daa81613cc7565b8114613db557600080fd5b50565b60028110613dc557600080fd5b50565b613dd181613cf1565b8114613ddc57600080fd5b5056fea2646970667358221220d4be3ac9581f76cc00c51c48cf7fe36a247743afcac866fdbedb6a0e1d83b09c64736f6c63430008000033",
  "immutableReferences": {},
  "source": "pragma solidity 0.8.0;\r\npragma abicoder v2;\r\n\r\nimport \"../contracts/Wallet.sol\";\r\n\r\ncontract Dex is Wallet{\r\n \r\n    enum Side {\r\n        Buy,\r\n        Sell\r\n    }\r\n    uint256 OrderID;\r\n    struct Order {\r\n        bytes32 symbol;\r\n        uint256 amount;\r\n        uint256 price;\r\n        address trader;\r\n        uint256 id;\r\n    }\r\n    mapping(bytes32 => mapping(uint256 => Order[])) public Orderbook;\r\n    mapping(address => uint256) public ETHbalance;\r\n    \r\n    event Trade (bytes32 _symbol, uint256 _amount, uint256 _price, address seller, address buyer);\r\n    function depositETH() public payable{\r\n        ETHbalance[msg.sender] += msg.value;\r\n    }\r\n    function getOrderBook(bytes32 _symbol, Side _side) public view returns(Order[] memory){\r\n        return(Orderbook[_symbol][uint256(_side)]);\r\n    }\r\n    function getOrder(bytes32 _symbol, Side _side, uint256 _i) public view returns(Order memory){\r\n        return(Orderbook[_symbol][uint256(_side)][_i]);\r\n    }\r\n    function getOrderID(bytes32 _symbol, Side _side, uint256 _i) public view returns(uint256){\r\n        return(Orderbook[_symbol][uint256(_side)][_i].id);\r\n    }\r\n    function getETHbalance()public view returns(uint256){\r\n        return(ETHbalance[msg.sender]);\r\n    }\r\n    //function getRV() public view returns(uint256){\r\n      //  return(randomvariable);\r\n    //}\r\n    function PlaceOrder(bytes32 _symbol, uint256 _amount, uint256 _price, Side _side) public tokenexists(_symbol) {\r\n        if(_side == Side.Buy){\r\n            require(ETHbalance[msg.sender]>= _price*_amount);\r\n            //adjust balances (make it vanish..it will get turned into an order)\r\n            //check if you cant use existing functions for that:\r\n            ETHbalance[msg.sender] -= _price*_amount;\r\n        }\r\n        else{\r\n            //check later if we will have local balances, or if we will use the respective balances of the respective ERC20 token\r\n            require(balances[msg.sender][_symbol]>= _amount);\r\n            //adjust balance of token. Make it vanish(gets turned into an order)\r\n            //check if you cant use existing functions for that:\r\n            balances[msg.sender][_symbol]-= _amount;\r\n        }\r\n        //create unique permanent order ID (why do we need this? check later)\r\n        //fix this. hay que lograr que siempre se agregue uno\r\n        OrderID += 1;\r\n        //add the actuall order to the order book\r\n        _createorder(_symbol, _amount, _price, _side);\r\n        // order the orderbook from hights price to lowest\r\n        _orderOrderbook(_symbol, _side);\r\n        //check if there is a match, and adjust the orderbook and adjust the asociated balances\r\n        if (Orderbook[_symbol][uint256(Side.Buy)].length >0 && Orderbook[_symbol][uint256(Side.Sell)].length > 0){\r\n            while(Orderbook[_symbol][uint256(Side.Buy)][0].price >= Orderbook[_symbol][uint256(Side.Sell)][Orderbook[_symbol][uint256(Side.Sell)].length-1].price){\r\n                \r\n                _matchorder(_price, _symbol);\r\n                break;\r\n\r\n                if(Orderbook[_symbol][uint256(Side.Buy)].length == 0 || Orderbook[_symbol][uint256(Side.Sell)].length == 0){\r\n                    //if the sell orderbook or buy orderbook is completely \"popped\", stop loop\r\n                    break;\r\n                }      \r\n            }    \r\n        }\r\n\r\n    }   \r\n    function placeMarketOrder(bytes32 _symbol, uint256 _amount, Side _side) public tokenexists(_symbol) {\r\n        uint256 amount;\r\n        uint256 amountToCompare;\r\n        uint256 price;\r\n        //start the loop, while there is still amount to buy or sell\r\n        while( _amount > 0 ){\r\n            //fetch the correct price and reference amount, to compare which amount is limiting the trade (either input or order of the orderbook)\r\n            if(_side == Side.Sell){\r\n                //find out if require means that even if we already used other functions, and adjusted balances, if eventually there are no buy orders if everything gets reverted.\r\n                require(Orderbook[_symbol][uint256(Side.Buy)].length >0, \"There are no buy orders, so you cant sell at market\");\r\n                price = Orderbook[_symbol][uint256(Side.Buy)][0].price;\r\n                amountToCompare = Orderbook[_symbol][uint256(Side.Buy)][0].amount;\r\n            }\r\n            else{\r\n                require(Orderbook[_symbol][uint256(Side.Sell)].length >0, \"There are no sell orders, so you cant buy at market\");\r\n                price = Orderbook[_symbol][uint256(Side.Sell)][Orderbook[_symbol][uint256(Side.Sell)].length-1].price;\r\n                amountToCompare = Orderbook[_symbol][uint256(Side.Sell)][Orderbook[_symbol][uint256(Side.Sell)].length-1].amount;\r\n            }\r\n            //determine which amount to use (the input or the amount in the orderbook)\r\n            if(amountToCompare >= _amount){\r\n                amount = _amount;\r\n            }   \r\n            else{\r\n                amount = amountToCompare;            \r\n            }\r\n            //place the order with the found price and amount   \r\n            PlaceOrder(_symbol, amount, price, _side);\r\n            //adjust the amount, so that once there has been sold/bought up to the input amount,the loop stops\r\n            _amount -= amount;\r\n        }\r\n    }\r\n    function _createorder(bytes32 _symbol, uint256 _amount, uint256 _price, Side _side) private {\r\n        Order[] storage Orders = Orderbook[_symbol][uint256(_side)];\r\n        Orders.push(Order(_symbol, _amount, _price, msg.sender, OrderID));\r\n    }\r\n    function _orderOrderbook(bytes32 _symbol, Side _side) private{\r\n        Order[] storage Orders = Orderbook[_symbol][uint256(_side)];\r\n        for(uint256 i=0; i <( Orders.length -1); i++){\r\n            if(Orders[Orders.length-(i+2)].price < Orders[Orders.length-(i+1)].price){\r\n                Order memory orderToMove = Orders[Orders.length-(i+1)]; //ver si eliminar esto, o si se mantiene si lo separo en dos funciones - d\r\n                //depender si el memory de create traspasa a \"childfunctions\"\r\n                Orders[Orders.length-(i+1)] = Orders[Orders.length-(i+2)];\r\n                Orders[Orders.length-(i+2)] = orderToMove;  \r\n            }\r\n            else{\r\n                //to interrupt the for.\r\n                break;\r\n            }\r\n        }     \r\n    }\r\n    function _matchorder( uint256 _price, bytes32 _symbol ) private {\r\n        //establishes if we compute the \"sell amount\" or \"buy amount\", since the order with lower amount is the order that limits the trade\r\n        if(Orderbook[_symbol][uint256(Side.Buy)][0].amount > Orderbook[_symbol][uint256(Side.Sell)][Orderbook[_symbol][uint256(Side.Sell)].length-1].amount){\r\n            uint256  amount = Orderbook[_symbol][uint256(Side.Sell)][Orderbook[_symbol][uint256(Side.Sell)].length-1].amount;\r\n            //adjust balances of seller and buyer\r\n            _adjustbalances(_symbol, _price, amount);\r\n            //eliminate the lowest sell orderbook register after match\r\n            Orderbook[_symbol][uint256(Side.Sell)].pop();        \r\n        }\r\n        if(Orderbook[_symbol][uint256(Side.Buy)][0].amount == Orderbook[_symbol][uint256(Side.Sell)][Orderbook[_symbol][uint256(Side.Sell)].length-1].amount){\r\n            uint256  amount = Orderbook[_symbol][uint256(Side.Sell)][Orderbook[_symbol][uint256(Side.Sell)].length-1].amount;\r\n            //adjust balances of seller and buyer\r\n            _adjustbalances(_symbol, _price, amount);\r\n            //eliminate the lowest sell orderbook register after match\r\n            Order[] storage Orderinios = Orderbook[_symbol][uint256(Side.Sell)];\r\n            Orderinios.pop();\r\n            Orderbook[_symbol][uint256(Side.Sell)] = Orderinios;\r\n\r\n            //Orderbook[_symbol][uint256(Side.Sell)].pop();\r\n            //get the order[0] of buyorderbook to the last place [lengt-1] so that we can pop it.\r\n            //_dropMatchedBuyOrder(_symbol);\r\n        }      \r\n        if(Orderbook[_symbol][uint256(Side.Buy)][0].amount < Orderbook[_symbol][uint256(Side.Sell)][Orderbook[_symbol][uint256(Side.Sell)].length-1].amount){\r\n            uint256  amount = Orderbook[_symbol][uint256(Side.Buy)][0].amount;\r\n            //adjust balances of seller and buyer\r\n            _adjustbalances(_symbol, _price, amount);\r\n            //get the order[0] of buyorderbook to the last place [lengt-1] so that we can pop it.\r\n            _dropMatchedBuyOrder(_symbol);  \r\n        }\r\n    }             \r\n    function _adjustbalances(bytes32 _symbol, uint256 _price, uint256 amount) private{\r\n        // adjust balances of buyer \r\n\r\n        //ETHbalance[Orderbook[_symbol][uint256(Side.Buy)][0].trader] -= amount*_price; - Its already done in place order!\r\n        balances[Orderbook[_symbol][uint256(Side.Buy)][0].trader][_symbol] += amount;\r\n        // adjust balances of seller\r\n\r\n        ETHbalance[Orderbook[_symbol][uint256(Side.Sell)][Orderbook[_symbol][uint256(Side.Sell)].length-1].trader] += amount*_price;\r\n        //Balances[Orderbook[_symbol][uint256(Side.Sell)][Orderbook[_symbol][uint256(Side.Sell)].length-1].trader][_symbol] -= amount; - Its already done in Place Order!\r\n\r\n        emit Trade(_symbol, amount,_price, Orderbook[_symbol][uint256(Side.Sell)][Orderbook[_symbol][uint256(Side.Sell)].length-1].trader, Orderbook[_symbol][uint256(Side.Buy)][0].trader);\r\n    }   \r\n    function _dropMatchedBuyOrder(bytes32 _symbol) private{\r\n        //im assuming since this variable is already storage defined, i dont have to re define it. Find out if im not overwriting something or something with this\r\n        Order[] storage Orders = Orderbook[_symbol][uint256(Side.Buy)];\r\n        //get Order[0] down to Order[lenght-1]\r\n        for(uint256 i=0; i< Orders.length -1; i++){\r\n            Orders[i] = Orders[i + 1];\r\n        }\r\n        // there is probably something fishy with the storage memory and shit. Because here im just saying orders.pop. So here im overwriting it ? i dont know.\r\n        Orders.pop();\r\n    }\r\n}\r\n\r\n",
  "sourcePath": "C:/Users/kilia/Documents/Ethereum 201/DEX/contracts/dex.sol",
  "compiler": {
    "name": "solc",
    "version": "0.8.0+commit.c7dfd78e.Emscripten.clang"
  },
  "schemaVersion": "3.3.4",
  "updatedAt": "2021-04-07T21:31:54.202Z",
  "networkType": "ethereum",
  "devdoc": {
    "kind": "dev",
    "methods": {},
    "version": 1
  },
  "userdoc": {
    "kind": "user",
    "methods": {},
    "version": 1
  }
}