{
  "contractName": "Wallet",
  "abi": [
    {
      "inputs": [
        {
          "internalType": "address",
          "name": "",
          "type": "address"
        },
        {
          "internalType": "bytes32",
          "name": "",
          "type": "bytes32"
        }
      ],
      "name": "balances",
      "outputs": [
        {
          "internalType": "uint256",
          "name": "",
          "type": "uint256"
        }
      ],
      "stateMutability": "view",
      "type": "function"
    },
    {
      "inputs": [
        {
          "internalType": "uint256",
          "name": "",
          "type": "uint256"
        }
      ],
      "name": "tokenlist",
      "outputs": [
        {
          "internalType": "bytes32",
          "name": "",
          "type": "bytes32"
        }
      ],
      "stateMutability": "view",
      "type": "function"
    },
    {
      "inputs": [
        {
          "internalType": "bytes32",
          "name": "",
          "type": "bytes32"
        }
      ],
      "name": "tokens",
      "outputs": [
        {
          "internalType": "bytes32",
          "name": "name",
          "type": "bytes32"
        },
        {
          "internalType": "address",
          "name": "tokenaddress",
          "type": "address"
        }
      ],
      "stateMutability": "view",
      "type": "function"
    },
    {
      "inputs": [
        {
          "internalType": "bytes32",
          "name": "_name",
          "type": "bytes32"
        },
        {
          "internalType": "bytes32",
          "name": "_symbol",
          "type": "bytes32"
        },
        {
          "internalType": "address",
          "name": "_tokenaddress",
          "type": "address"
        }
      ],
      "name": "addtoken",
      "outputs": [],
      "stateMutability": "nonpayable",
      "type": "function"
    },
    {
      "inputs": [
        {
          "internalType": "bytes32",
          "name": "_symbol",
          "type": "bytes32"
        },
        {
          "internalType": "uint256",
          "name": "_amount",
          "type": "uint256"
        }
      ],
      "name": "deposit",
      "outputs": [],
      "stateMutability": "nonpayable",
      "type": "function"
    },
    {
      "inputs": [
        {
          "internalType": "bytes32",
          "name": "_symbol",
          "type": "bytes32"
        },
        {
          "internalType": "uint256",
          "name": "_amount",
          "type": "uint256"
        }
      ],
      "name": "withdraw",
      "outputs": [],
      "stateMutability": "nonpayable",
      "type": "function"
    }
  ],
  "bytecode": "0x608060405234801561001057600080fd5b50610c31806100206000396000f3fe608060405234801561001057600080fd5b50600436106100625760003560e01c8063040cf020146100675780631de26e16146100835780631f14df691461009f57806348a7dce9146100cf5780634f3cb541146100eb578063904194a31461011b575b600080fd5b610081600480360381019061007c919061088e565b61014c565b005b61009d6004803603810190610098919061088e565b61037e565b005b6100b960048036038101906100b491906107b1565b61061f565b6040516100c69190610a68565b60405180910390f35b6100e960048036038101906100e4919061083f565b610644565b005b610105600480360381019061010091906108ca565b6106e0565b6040516101129190610a04565b60405180910390f35b61013560048036038101906101309190610816565b610704565b604051610143929190610a1f565b60405180910390f35b81600073ffffffffffffffffffffffffffffffffffffffff1660008083815260200190815260200160002060010160009054906101000a900473ffffffffffffffffffffffffffffffffffffffff1673ffffffffffffffffffffffffffffffffffffffff1614156101f2576040517f08c379a00000000000000000000000000000000000000000000000000000000081526004016101e990610a48565b60405180910390fd5b81600160003373ffffffffffffffffffffffffffffffffffffffff1673ffffffffffffffffffffffffffffffffffffffff168152602001908152602001600020600085815260200190815260200160002054101561024f57600080fd5b81600160003373ffffffffffffffffffffffffffffffffffffffff1673ffffffffffffffffffffffffffffffffffffffff168152602001908152602001600020600085815260200190815260200160002060008282546102af9190610aea565b9250508190555060008084815260200190815260200160002060010160009054906101000a900473ffffffffffffffffffffffffffffffffffffffff1673ffffffffffffffffffffffffffffffffffffffff1663a9059cbb33846040518363ffffffff1660e01b81526004016103269291906109db565b602060405180830381600087803b15801561034057600080fd5b505af1158015610354573d6000803e3d6000fd5b505050506040513d601f19601f8201168201806040525081019061037891906107ed565b50505050565b81600073ffffffffffffffffffffffffffffffffffffffff1660008083815260200190815260200160002060010160009054906101000a900473ffffffffffffffffffffffffffffffffffffffff1673ffffffffffffffffffffffffffffffffffffffff161415610424576040517f08c379a000000000000000000000000000000000000000000000000000000000815260040161041b90610a48565b60405180910390fd5b8160008085815260200190815260200160002060010160009054906101000a900473ffffffffffffffffffffffffffffffffffffffff1673ffffffffffffffffffffffffffffffffffffffff166370a08231336040518263ffffffff1660e01b81526004016104939190610989565b60206040518083038186803b1580156104ab57600080fd5b505afa1580156104bf573d6000803e3d6000fd5b505050506040513d601f19601f820116820180604052508101906104e391906108f3565b10156104ee57600080fd5b81600160003373ffffffffffffffffffffffffffffffffffffffff1673ffffffffffffffffffffffffffffffffffffffff1681526020019081526020016000206000858152602001908152602001600020600082825461054e9190610a94565b9250508190555060008084815260200190815260200160002060010160009054906101000a900473ffffffffffffffffffffffffffffffffffffffff1673ffffffffffffffffffffffffffffffffffffffff166323b872dd3330856040518463ffffffff1660e01b81526004016105c7939291906109a4565b602060405180830381600087803b1580156105e157600080fd5b505af11580156105f5573d6000803e3d6000fd5b505050506040513d601f19601f8201168201806040525081019061061991906107ed565b50505050565b6001602052816000526040600020602052806000526040600020600091509150505481565b8060008084815260200190815260200160002060010160006101000a81548173ffffffffffffffffffffffffffffffffffffffff021916908373ffffffffffffffffffffffffffffffffffffffff16021790555082600080848152602001908152602001600020600001819055506002829080600181540180825580915050600190039060005260206000200160009091909190915055505050565b600281815481106106f057600080fd5b906000526020600020016000915090505481565b60006020528060005260406000206000915090508060000154908060010160009054906101000a900473ffffffffffffffffffffffffffffffffffffffff16905082565b60008135905061075781610b9f565b92915050565b60008151905061076c81610bb6565b92915050565b60008135905061078181610bcd565b92915050565b60008135905061079681610be4565b92915050565b6000815190506107ab81610be4565b92915050565b600080604083850312156107c457600080fd5b60006107d285828601610748565b92505060206107e385828601610772565b9150509250929050565b6000602082840312156107ff57600080fd5b600061080d8482850161075d565b91505092915050565b60006020828403121561082857600080fd5b600061083684828501610772565b91505092915050565b60008060006060848603121561085457600080fd5b600061086286828701610772565b935050602061087386828701610772565b925050604061088486828701610748565b9150509250925092565b600080604083850312156108a157600080fd5b60006108af85828601610772565b92505060206108c085828601610787565b9150509250929050565b6000602082840312156108dc57600080fd5b60006108ea84828501610787565b91505092915050565b60006020828403121561090557600080fd5b60006109138482850161079c565b91505092915050565b61092581610b1e565b82525050565b61093481610b3c565b82525050565b6000610947601483610a83565b91507f746f6b656e20646f6573206e6f742065786973740000000000000000000000006000830152602082019050919050565b61098381610b66565b82525050565b600060208201905061099e600083018461091c565b92915050565b60006060820190506109b9600083018661091c565b6109c6602083018561091c565b6109d3604083018461097a565b949350505050565b60006040820190506109f0600083018561091c565b6109fd602083018461097a565b9392505050565b6000602082019050610a19600083018461092b565b92915050565b6000604082019050610a34600083018561092b565b610a41602083018461091c565b9392505050565b60006020820190508181036000830152610a618161093a565b9050919050565b6000602082019050610a7d600083018461097a565b92915050565b600082825260208201905092915050565b6000610a9f82610b66565b9150610aaa83610b66565b9250827fffffffffffffffffffffffffffffffffffffffffffffffffffffffffffffffff03821115610adf57610ade610b70565b5b828201905092915050565b6000610af582610b66565b9150610b0083610b66565b925082821015610b1357610b12610b70565b5b828203905092915050565b6000610b2982610b46565b9050919050565b60008115159050919050565b6000819050919050565b600073ffffffffffffffffffffffffffffffffffffffff82169050919050565b6000819050919050565b7f4e487b7100000000000000000000000000000000000000000000000000000000600052601160045260246000fd5b610ba881610b1e565b8114610bb357600080fd5b50565b610bbf81610b30565b8114610bca57600080fd5b50565b610bd681610b3c565b8114610be157600080fd5b50565b610bed81610b66565b8114610bf857600080fd5b5056fea264697066735822122070bb97438840ed14078a54dbcee0696dfb4a9e079bf257d4bef73ea998fd90d664736f6c63430008000033",
  "immutableReferences": {},
  "source": "pragma solidity 0.8.0;\r\n\r\nimport \"../node_modules/@openzeppelin/contracts/token/ERC20/IERC20.sol\";\r\nimport \"../node_modules/@openzeppelin/contracts/utils/math/SafeMath.sol\";\r\n\r\ncontract Wallet {\r\nusing SafeMath for uint256;\r\nstruct token {\r\n    bytes32 name;\r\n    address tokenaddress;\r\n}\r\n\r\nmodifier tokenexists(bytes32 _symbol) {\r\n    require(tokens[_symbol].tokenaddress != address(0), \"token does not exist\");\r\n    _;\r\n}\r\n\r\nmapping (bytes32 => token) public tokens;\r\nmapping (address => mapping(bytes32 => uint256)) public balances;\r\nbytes32[] public tokenlist;\r\n\r\n\r\nfunction addtoken(bytes32  _name, bytes32 _symbol, address _tokenaddress) external {\r\n\r\n    tokens[_symbol].tokenaddress = _tokenaddress;\r\n    tokens[_symbol].name = _name;\r\n    tokenlist.push(_symbol);\r\n}\r\n\r\nfunction deposit(bytes32 _symbol, uint256 _amount)  tokenexists(_symbol) public {\r\n\r\n    require(IERC20(tokens[_symbol].tokenaddress).balanceOf(msg.sender) >= _amount);\r\n    balances[msg.sender][_symbol] += _amount;\r\n    IERC20(tokens[_symbol].tokenaddress).transferFrom(msg.sender, address(this), _amount);\r\n}\r\n\r\nfunction withdraw(bytes32 _symbol, uint256 _amount) tokenexists(_symbol) public {\r\n    \r\n    require(balances[msg.sender][_symbol] >= _amount);\r\n    balances[msg.sender][_symbol] -=_amount;\r\n    IERC20(tokens[_symbol].tokenaddress).transfer(msg.sender,_amount);\r\n}\r\n\r\n}",
  "sourcePath": "C:/Users/kilia/Documents/Ethereum 201/DEX/contracts/Wallet.sol",
  "compiler": {
    "name": "solc",
    "version": "0.8.0+commit.c7dfd78e.Emscripten.clang"
  },
  "schemaVersion": "3.3.4",
  "updatedAt": "2021-04-06T00:49:06.570Z",
  "devdoc": {
    "kind": "dev",
    "methods": {},
    "version": 1
  },
  "userdoc": {
    "kind": "user",
    "methods": {},
    "version": 1
  }
}